:020000040800F2
:1000000000500020550B00084D0800084F0800085C
:1000100051080008530800085508000800000000B7
:100020000000000000000000000000005708000869
:1000300059080008000000005B0800085D0800087F
:100040009D0B00089D0B00089D0B00089D0B0008F0
:100050009D0B00089D0B00089D0B00089D0B0008E0
:100060009D0B00089D0B00089D0B00089D0B0008D0
:100070009D0B00089D0B00089D0B00089D0B0008C0
:100080009D0B00089D0B00089D0B00089D0B0008B0
:100090009D0B00089D0B00089D0B00089D0B0008A0
:1000A0009D0B00089D0B00089D0B00089D0B000890
:1000B0006508000875080008850800089D0B000801
:1000C0009D0B00089D0B00089D0B00089D0B000870
:1000D0009D0B0008950800089D0B00089D0B00086B
:1000E0009D0B00089D0B00089D0B00080000000000
:1000F0000000000000000000000000000000000000
:0C01000000000000000000005FF808F1A3
:10010C0010B5054C237833B9044B13B10448AFF345
:10011C0000800123237010BD4C040020000000005F
:10012C00EC23000808B5034B1BB103490348AFF39C
:10013C00008008BD0000000050040020EC230008E3
:10014C002DE9F04188B0002404940594069407949A
:10015C00424B9A6942F010029A619A6902F01002BD
:10016C000092009A9A6942F020029A619A6902F010
:10017C0020020192019A9A6942F004029A619A69EA
:10018C0002F004020292029A9A6942F008029A6101
:10019C009B6903F008030393039BDFF8C4800122DF
:1001AC004FF46041404600F02BFF2E4F2246FF21BA
:1001BC00384600F025FF2C4E22464FF6E2713046B1
:1001CC0000F01EFF01224FF41941384600F018FFD1
:1001DC0001221821304600F013FF4FF460430493C2
:1001EC00012505950694079504A9404600F0F6FDF7
:1001FC00FF230493059506944FF00308CDF81C805B
:10020C0004A9384600F0EAFD0223049305950694F0
:10021C00079304A9304600F0E1FD4FF47F430493AB
:10022C0005950694CDF81C8004A9304600F0D6FD47
:10023C004FF41943049305950694079504A9384681
:10024C0000F0CCFDF823049305950694079504A9BA
:10025C00304600F0C3FD08B0BDE8F081001002404C
:10026C000010014000080140000C014010B41D4B6F
:10027C00B3F800C01C48A0F806C01C49A1F806C081
:10028C001B4AA2F806C01B4BA3F806C01A4CB4F8C4
:10029C0000C0A0F800C0A1F800C0A2F800C0A3F8EC
:1002AC0000C0164CB4F800C0A0F802C0A1F802C0FF
:1002BC00A2F802C0A3F802C0114CB4F800C0A0F818
:1002CC0004C0A1F804C0A2F804C0A3F804C04FF005
:1002DC00000C80F808C081F808C001211172197255
:1002EC0010BC70470C000020700400207C0400201F
:1002FC0088040020940400200A000020080000203C
:10030C000E0000201A4B58891A4A1B4BA3FB00C144
:10031C00C908117001EB81014FEA410CA0EB0C00F4
:10032C00507016494889A3FB00C1C908917001EBB4
:10033C0081014FEA410CA0EB0C00D07010494889A8
:10034C00A3FB00C1C908117101EB81014FEA410CFB
:10035C00A0EB0C0050710B494989A3FB0103DB088E
:10036C00937103EB83035800091AD171704700BFD6
:10037C007004002000000020CDCCCCCC7C040020EC
:10038C00880400209404002008B5384B1B7A012BFC
:10039C001FD0022B24D0ABB1354B1B7A012B2DD0A7
:1003AC00022B32D01BB3334B1B7A012B3BD0022BCD
:1003BC0040D08BB3304B1B7A012B49D0022B4ED043
:1003CC00FBB308BD01F036FE01F05CFE01F064FEEB
:1003DC00E2E701F04DFE01F037FE01F05DFEDBE7D8
:1003EC0001F046FE01F04EFE01F038FED4E701F0BC
:1003FC005DFE01F083FE01F08BFED4E701F074FE8C
:10040C0001F05EFE01F084FECDE701F06DFE01F01F
:10041C0075FE01F05FFEC6E701F084FE01F0AAFE56
:10042C0001F0B2FEC6E701F09BFE01F085FE01F083
:10043C00ABFEBFE701F094FE01F09CFE01F086FEDE
:10044C00B8E701F0ABFE01F0D1FE01F0D9FEB8E740
:10045C0001F0C2FE01F0ACFE01F0D2FEB1E701F0FA
:10046C00BBFE01F0C3FE01F0ADFEAAE77004002054
:10047C007C040020880400209404002002680D4BAA
:10048C009A4200D0704710B50B4C012221460B4804
:10049C0001F0B3FD2378312B05D00722084907481A
:1004AC0001F0E5FB10BD13220649044801F0DFFB07
:1004BC00F8E700BF003801406C0400207C050020E8
:1004CC00182400080424000810B40368B3F1804F0A
:1004DC0009D00268884B9A4210D00268874B9A4226
:1004EC0023D010BC7047864A1388591C1180B3F571
:1004FC00FA7FEED1134600221A80EAE781490B7885
:10050C0001229A40D243804CE260804AD45C804AFB
:10051C0032F8142012027F4CE2600133DBB20B7014
:10052C00082BDAD100220A70D7E77B4A1388591CB2
:10053C001180B3F57A7FD4D1784B1B7A012B31D053
:10054C00022B3ED0FBB1764B1B7A012B57D0022BE2
:10055C0064D0002B44D0734B1B7A012B7CD0022B24
:10056C0000F08A80002B68D06F4B1B7A012B00F0B7
:10057C00A380022B00F0B080002B00F08D80664B26
:10058C0000221A80ADE7654A13885381013B9BB268
:10059C001380002BD7D1134601221A72634A12889A
:1005AC001A80D0E75D4A53885381013B9BB253803C
:1005BC00002BC8D1134602221A725D4A12885A8047
:1005CC00C1E7564A93885381013B9BB29380002B21
:1005DC00B9D1134600221A72564A12889A80B2E791
:1005EC004F4A13885381013B9BB21380002BB2D12D
:1005FC00134601221A724D4A12881A80ABE7484AF8
:10060C0053885381013B9BB25380002BA3D11346DB
:10061C0002221A72464A12885A809CE7404A9388F2
:10062C005381013B9BB29380002B94D11346002243
:10063C001A72404A12889A808DE73A4A138853817D
:10064C00013B9BB21380002B8ED1134601221A72F0
:10065C00364A12881A8087E7324A53885381013B05
:10066C009BB25380002B7FF47FAF134602221A7289
:10067C002F4A12885A8077E72A4A93885381013B84
:10068C009BB29380002B7FF46FAF134600221A723B
:10069C00284A12889A8067E7234A13885381013BC2
:1006AC009BB21380002B7FF46AAF134601221A729F
:1006BC001E4A12881A8062E71B4A53885381013BF9
:1006CC009BB25380002B7FF45AAF134602221A724E
:1006DC00174A12885A8052E7134A93885381013B78
:1006EC009BB29380002B7FF44AAF134600221A7200
:1006FC00104A12889A8042E700040040000800402B
:10070C00A00400206A040020000801400000002022
:10071C0020240008000C0140680400207004002014
:10072C007C04002088040020940400200A0000208F
:10073C00080000200E00002072B6FEE700B591B054
:10074C002822002106A801F089FD002301930293C1
:10075C00039304930593012206924FF4803307937D
:10076C000A9202220D920E934FF4E0130F9306A8F7
:10077C0000F062FC80B90F23019302210291002347
:10078C0003934FF480620492059301A800F094FE49
:10079C0020B911B05DF804FBFFF7CEFFFFF7CCFFDB
:1007AC0008B5FFF763FD00F01BFAFFF7C7FFFFF773
:1007BC00C7FC00F0ABF800F0E1F800F067F900F0CE
:1007CC006DF8094800F082FF084800F07FFF0848E8
:1007DC0000F07CFF01220749074801F00EFCFFF7EF
:1007EC0091FDFFF7D1FDFAE7A4040020EC040020F2
:1007FC00340500206C0400207C05002082B00E4BD8
:10080C009A6942F001029A619A6902F0010200921F
:10081C00009ADA6942F08052DA61DB6903F08053A6
:10082C000193019B054A536823F0E06343F0007386
:10083C00536002B0704700BF00100240000001403E
:10084C00FEE7FEE7FEE7FEE7FEE7704770477047FE
:10085C0008B500F0D7F908BD08B5024800F06EFFE6
:10086C0008BD00BFA404002008B5024800F066FFD4
:10087C0008BD00BFEC04002008B5024800F05EFF84
:10088C0008BD00BF3405002008B5024801F098FAF5
:10089C0008BD00BF7C0500207047000000B587B084
:1008AC00002302930393049305930093019316483A
:1008BC004FF08042026047224260836040F2E73290
:1008CC00C26003618023836101F030F890B94FF46A
:1008DC008053029302A90C4801F060F868B9002318
:1008EC00009301936946084801F0C6F840B907B077
:1008FC005DF804FBFFF720FFE9E7FFF71DFFEEE7CC
:10090C00FFF71AFFF3E700BFA404002000B587B07F
:10091C0000230293039304930593009301931548CA
:10092C00154A026047224260836040F2E732C2609F
:10093C000361836100F0FAFF90B94FF48053029386
:10094C0002A90C4801F02AF868B90023009301931E
:10095C006946084801F090F840B907B05DF804FB0F
:10096C00FFF7EAFEE9E7FFF7E7FEEEE7FFF7E4FE45
:10097C00F3E700BFEC0400200004004000B587B092
:10098C00002302930393049305930093019315485A
:10099C00154A026047224260836040F2E732C2602F
:1009AC000361836100F0C2FF90B94FF4805302934E
:1009BC0002A90C4800F0F2FF68B9002300930193E0
:1009CC006946084801F058F840B907B05DF804FBD7
:1009DC00FFF7B2FEE9E7FFF7AFFEEEE7FFF7ACFE7D
:1009EC00F3E700BF340500200008004000B585B0D7
:1009FC000368B3F1804F08D0214A934219D0214AA1
:100A0C00934229D005B05DF804FB03F50433DA6991
:100A1C0042F00102DA61DB6903F001030193019BEF
:100A2C00002211461C2000F011F91C2000F046F9A0
:100A3C00E8E7154BDA6942F00202DA61DB6903F090
:100A4C0002030293029B002211461D2000F0FEF8C7
:100A5C001D2000F033F9D5E70B4BDA6942F00402A4
:100A6C00DA61DB6903F004030393039B0022114654
:100A7C001E2000F0EBF81E2000F020F9C2E700BFAA
:100A8C0000040040000800400010024008B50A486D
:100A9C000A4B03604FF4E133436000238360C3606F
:100AAC0003610C2242618361C36101F0B1F800B9AA
:100ABC0008BDFFF741FEFBE77C0500200038014034
:100ACC0030B587B000230293039304930593026817
:100ADC001B4B9A4201D007B030BD03F558439A69BD
:100AEC0042F480429A619A6902F480420092009A20
:100AFC009A6942F004029A619B6903F00403019322
:100B0C00019B4FF400730293022303930323059379
:100B1C000C4D02A9284600F061F94FF48063029352
:100B2C0000240394049402A9284600F057F92246A5
:100B3C002146252000F08AF8252000F0BFF8CAE7EE
:100B4C0000380140000801400C480D490D4A0023B3
:100B5C0002E0D458C4500433C4188C42F9D30A4A66
:100B6C000A4C002301E013600432A242FBD3FFF7CE
:100B7C0093FE01F04FFBFFF713FE704700000020BF
:100B8C004C040020742400084C040020C8050020EC
:100B9C00FEE7000010B504460E4B18784FF47A733C
:100BAC00B3FBF0F30C4A1068B0FBF3F000F094F8D0
:100BBC0068B90F2C01D901200AE0002221464FF020
:100BCC00FF3000F043F8054B1C60002000E00120D2
:100BDC0010BD00BF140000201000002018000020E1
:100BEC0008B5074A136843F010031360032000F0A4
:100BFC001BF80F20FFF7CEFFFFF700FE002008BD0B
:100C0C0000200240034A1168034B1B780B4413600D
:100C1C00704700BFC005002014000020014B18686D
:100C2C00704700BFC0050020074AD36823F4E06377
:100C3C001B041B0C000200F4E060034343F0BF6391
:100C4C0043F40033D360704700ED00E000B5194B5E
:100C5C00DB68C3F30223C3F1070CBCF1040F28BFFC
:100C6C004FF0040C03F1040EBEF1060F18D9033B30
:100C7C004FF0FF3E0EFA0CFC21EA0C0199400EFAE3
:100C8C0003F322EA0303194300280BDB0901C9B261
:100C9C0000F1604000F5614080F800135DF804FB42
:100CAC000023E5E700F00F000901C9B2024B19540B
:100CBC00F4E700BF00ED00E014ED00E0002807DBD6
:100CCC0000F01F02400901239340024A42F82030F1
:100CDC00704700BF00E100E00138B0F1807F0BD21B
:100CEC004FF0E0235861054AF02182F823100020D0
:100CFC00986107221A6170470120704700ED00E0EF
:100D0C0090F82130022B06D004238363002380F853
:100D1C002030012070470268136823F00E03136023
:100D2C000268136823F001031360036CC16B01228A
:100D3C0002FA03F34B6080F82120002380F8203066
:100D4C001846704708B590F82130022B03D00423C5
:100D5C008363012008BD0268136823F00E0313603F
:100D6C000268136823F0010313600368194A934265
:100D7C0014D0143293421FD0143293421ED014322A
:100D8C0093421ED0143293421ED01432934202D09E
:100D9C004FF0807203E04FF4801200E001220E4B02
:100DAC005A60012380F82130002380F82030436BF7
:100DBC006BB198470020CDE71022F0E74FF480721A
:100DCC00EDE74FF48052EAE74FF48032E7E700207A
:100DDC00C0E700BF080002400000024070B582B0BE
:100DEC000024A446A6E0804DAA4210D007D97F4D1E
:100DFC00AA420CD005F58035AA4208D013E0A5F51F
:100E0C008015AA4203D005F57025AA4207D18A683D
:100E1C00002A58D0012A51D04361082403E0A5F5DB
:100E2C008015AA42F3D0BEF1FF0F4ED80646BEF194
:100E3C00FF0F4CD84FEA8C0233680F25954023EAFC
:100E4C00050304FA02F2134333604B6813F0805F1E
:100E5C006ED0674B9A6942F001029A619B6903F06C
:100E6C0001030193019B4FEA9C02951C614B53F8C3
:100E7C0025600CF003039D000F23AB4026EA03060C
:100E8C005D4B984229D003F58063984200F08E8028
:100E9C0003F58063984200F08B8003F580639842E1
:100EAC0019D004231AE0CC68BDE7CC680434BAE747
:100EBC00CC680834B7E7CC680C34B4E70361082479
:100ECC00B1E70024AFE70424ADE7061DAFE7ACF1B2
:100EDC0008029200B0E7032300E00023AB40334349
:100EEC000232444D45F822304B6813F4803F61D0F8
:100EFC00424A136843EA0E0313604B6813F4003F35
:100F0C005ED03E4A536843EA0E0353604B6813F4B9
:100F1C00801F5BD0394A936843EA0E0393604B6899
:100F2C0013F4001F58D0354AD36843EA0E03D3603C
:100F3C000CF1010C0A6832FA0CF353D0012303FABA
:100F4C000CF302EA030E33EA0202F1D14A68122AC8
:100F5C003FF649AF122A3FF666AF01A555F822F0CD
:100F6C001B0E0008B30E0008BD0E0008CF0E0008C3
:100F7C00330E0008330E0008330E0008330E000841
:100F8C00330E0008330E0008330E0008330E000831
:100F9C00330E0008330E0008330E0008330E000821
:100FAC00330E0008B70E0008C30E0008012395E7A6
:100FBC00022393E7114A136823EA0E0313609CE79C
:100FCC000E4A536823EA0E0353609FE70B4A93685B
:100FDC0023EA0E039360A2E7084AD36823EA0E03C0
:100FEC00D360A5E702B070BD0000221000003110E4
:100FFC0000100240000001400008014000040140C4
:10100C000AB10161704709040161704782B0084B55
:10101C001B68084AA2FB03235B0A00FB03F3019342
:10102C0000BF019B5A1E0192002BF9D102B07047F0
:10103C0010000020D34D6210002800F0F18170B533
:10104C0082B00446036813F0010F2CD0994B5B68F7
:10105C0003F00C03042B1DD0964B5B6803F00C03C0
:10106C00082B12D06368B3F5803F41D0002B55D1CB
:10107C0003F1804303F504331A6822F480321A60BA
:10108C001A6822F480221A6037E08A4B5B6813F4EA
:10109C00803FE7D0874B1B6813F4003F03D0636895
:1010AC00002B00F0BF81236813F0020F75D0814B29
:1010BC005B6813F00C0F5FD07E4B5B6803F00C0386
:1010CC00082B54D02369002B00F08A807A4B012224
:1010DC001A60FFF7A3FD0546764B1B6813F0020F51
:1010EC0075D1FFF79BFD401B0228F5D903209EE12B
:1010FC00704A136843F480331360636843B3FFF79B
:10110C008DFD05466B4B1B6813F4003FCBD1FFF7ED
:10111C0085FD401B6428F5D9032088E1B3F5A02F89
:10112C0009D0644B1A6822F480321A601A6822F4CF
:10113C0080221A60E1E703F18043A3F53C331A687F
:10114C0042F480221A601A6842F480321A60D4E7A2
:10115C00FFF764FD0546574B1B6813F4003FA2D004
:10116C00FFF75CFD401B6428F5D903205FE1514B70
:10117C005B6813F4803FA5D14E4B1B6813F0020F34
:10118C0003D02369012B40F04F814A4A136823F0A6
:10119C00F803616943EAC1031360236813F0080F75
:1011AC0033D0A369002B5CD0434B0122C3F88024BD
:1011BC00FFF734FD05463F4B5B6A13F0020F21D15C
:1011CC00FFF72CFD401B0228F5D903202FE1394AEB
:1011DC00136823F0F803616943EAC1031360DCE789
:1011EC00354B00221A60FFF719FD0546314B1B6881
:1011FC0013F0020FD1D0FFF711FD401B0228F5D9D7
:10120C00032014E10120FFF701FF236813F0040F02
:10121C0000F09680274BDB6913F0805F34D1254BAF
:10122C00DA6942F08052DA61DB6903F08053019392
:10123C00019B0125214B1B6813F4807F26D0E368AA
:10124C00012B3DD0002B53D103F1804303F5043324
:10125C001A6A22F001021A621A6A22F004021A6255
:10126C0033E0154B0022C3F88024FFF7D7FC05466A
:10127C00104B5B6A13F0020FC7D0FFF7CFFC401B7B
:10128C000228F5D90320D2E00025D3E70B4A1368D6
:10129C0043F480731360FFF7C1FC0646074B1B68D1
:1012AC0013F4807FCBD1FFF7B9FC801B6428F5D9F0
:1012BC000320BCE0001002400000424200700040DD
:1012CC005F4A136A43F001031362E36833B3FFF719
:1012DC00A5FC06465A4B1B6A13F0020F2FD1FFF7E1
:1012EC009DFC801B41F288339842F3D903209EE089
:1012FC00052B09D0524B1A6A22F001021A621A6AA3
:10130C0022F004021A62E0E74D4B1A6A42F0040222
:10131C001A621A6A42F001021A62D6E7FFF77EFCE3
:10132C000646474B1B6A13F0020F08D0FFF776FCFA
:10133C00801B41F288339842F3D9032077E0E5B95A
:10134C00E369002B72D03E4A526802F00C02082A64
:10135C0056D0022B17D03B4B00221A66FFF75EFCCF
:10136C000446374B1B6813F0007F47D0FFF756FC41
:10137C00001B0228F5D9032059E0314AD36923F028
:10138C008053D361DCE72F4B00221A66FFF746FC33
:10139C0005462B4B1B6813F0007F06D0FFF73EFC75
:1013AC00401B0228F5D9032041E0236AB3F5803FA6
:1013BC001AD023494B6823F47413226A606A0243DF
:1013CC0013434B601F4B01221A66FFF727FC0446A0
:1013DC001B4B1B6813F0007F0ED1FFF71FFC001B8B
:1013EC000228F5D9032022E0154A536823F4003370
:1013FC00A1680B435360DCE7002018E0002016E0E6
:10140C00012B16D00E4B5B6803F48031226A91429B
:10141C0011D103F47013626A93420ED1002006E0DE
:10142C0001207047012002E0012000E0002002B002
:10143C0070BD0120FBE70120F9E70120F7E700BFB1
:10144C00001002400000424286B0174B0FCB0DF14A
:10145C00180C0CE90F0040F20123ADF80430134BCB
:10146C005B6803F00C02082A02D0114806B07047E2
:10147C00C3F3834218326A4412F8100C13F4803F01
:10148C000DD00A4B5B68C3F3404318336B4413F81D
:10149C00143C074A02FB00F0B0FBF3F0E6E7054B07
:1014AC0003FB00F0E2E700BF5024000800100240EC
:1014BC0000127A0000093D00002800F0A08070B5F1
:1014CC000D460446524B1B6803F007038B420BD2AC
:1014DC004F4A136823F007030B431360136803F0A0
:1014EC0007038B4240F08D80236813F0020F17D056
:1014FC0013F0040F04D0474A536843F4E06353607D
:10150C00236813F0080F04D0424A536843F4605325
:10151C005360404A536823F0F003A1680B435360B7
:10152C00236813F0010F31D06368012B20D0022BFC
:10153C0025D0384A126812F0020F64D035494A6837
:10154C0022F0030213434B60FFF768FB0646314B56
:10155C005B6803F00C036268B3EB820F16D0FFF7E5
:10156C005DFB801B41F288339842F0D9032045E0A3
:10157C00284A126812F4003FE0D101203EE0254ACF
:10158C00126812F0007FD9D1012037E0204B1B6884
:10159C0003F00703AB420AD91D4A136823F0070373
:1015AC002B431360136803F00703AB422DD1236860
:1015BC0013F0040F06D0174A536823F4E063E16874
:1015CC000B435360236813F0080F07D0114A53687C
:1015DC0023F46053216943EAC1035360FFF734FFDE
:1015EC000C4B5B68C3F303130B4AD35CD8400B4B17
:1015FC0018600B4B1868FFF7CDFA002070BD012066
:10160C0070470120FAE70120F8E70120F6E700BF58
:10161C000020024000100240382400081000002076
:10162C0018000020014B1868704700BF1000002004
:10163C0008B5FFF7F7FF044B5B68C3F30223034ABB
:10164C00D35CD84008BD00BF0010024048240008FD
:10165C0008B5FFF7E7FF044B5B68C3F3C223034AEB
:10166C00D35CD84008BD00BF0010024048240008DD
:10167C0010B4036A046A24F001040462846924F03F
:10168C00F00C4CEA021223F00A030B438261036252
:10169C0010BC704710B4046A24F01004046284690E
:1016AC00036A24F4704C4CEA023223F0A00343EAA0
:1016BC0001138261036210BC7047836823F07003CE
:1016CC000B4343F0070383607047000090F83D30F4
:1016DC00DBB2012B27D1022380F83D300268D3689E
:1016EC0043F00103D3600368114A934210D0B3F165
:1016FC00804F0DD0A2F59432934209D002F580624E
:10170C00934205D01A6842F001021A60002070471B
:10171C009A6802F00702062A07D01A6842F0010202
:10172C001A6000207047012070470020704700BFEE
:10173C00002C0140704770477047704710B5044645
:10174C0003681A6912F0020F11D0DA6812F0020F56
:10175C000DD06FF002021A610123037703689B69B5
:10176C0013F0030F70D0FFF7E6FF002323772368F5
:10177C001A6912F0040F12D0DA6812F0040F0ED0AE
:10178C006FF004021A610223237723689B6913F418
:10179C00407F5FD02046FFF7CEFF002323772368DE
:1017AC001A6912F0080F12D0DA6812F0080F0ED076
:1017BC006FF008021A61042323772368DB6913F0A6
:1017CC00030F4ED02046FFF7B6FF00232377236884
:1017DC001A6912F0100F12D0DA6812F0100F0ED036
:1017EC006FF010021A61082323772368DB6913F466
:1017FC00407F3DD02046FFF79EFF002323772368D0
:10180C001A6912F0010F03D0DA6812F0010F36D109
:10181C0023681A6912F0800F03D0DA6812F0800F77
:10182C0034D123681A6912F0400F03D0DA6812F031
:10183C00400F32D123681A6912F0200F03D0DA68F6
:10184C0012F0200F30D110BDFFF774FF2046FFF7C8
:10185C0073FF8AE72046FFF76DFF2046FFF76CFF0A
:10186C009BE72046FFF766FF2046FFF765FFACE7D6
:10187C002046FFF75FFF2046FFF75EFFBDE76FF0E6
:10188C0001021A612046FEF71FFEC1E76FF08002CD
:10189C001A61204600F027F9C3E76FF040021A6185
:1018AC002046FFF74AFFC5E76FF020021A61204679
:1018BC0000F018F9C7E7000003681B4A90420AD0F1
:1018CC00B0F1804F07D0A2F59432904203D002F5CC
:1018DC008062904203D123F070034A681343124A8A
:1018EC0090420AD0B0F1804F07D0A2F594329042CA
:1018FC0003D002F58062904203D123F44073CA688E
:10190C00134323F080034A69134303608B68C3625B
:10191C000B688362044B984202D0012343617047E9
:10192C000B690363F9E700BF002C014040B310B50D
:10193C00044690F83D30F3B1022384F83D30214643
:10194C0051F8040BFFF7B8FF012384F8463084F8F4
:10195C003E3084F83F3084F8403084F8413084F8CD
:10196C00423084F8433084F8443084F8453084F8AD
:10197C003D30002010BD80F83C30FFF737F8DBE736
:10198C000120704710B4846824F47F4C42EA03228F
:10199C000A4342EA0C02826010BC704790F83C305B
:1019AC00012B66D010B50446012380F83C3002238D
:1019BC0080F83D300268936823F47F4323F077036B
:1019CC0093600B68602B40D022D8402B47D00BD9AA
:1019DC00502B0ED1CA6849680068FFF749FE5021A8
:1019EC002068FFF76AFE04E0202B0CD008D9302BBE
:1019FC0009D0012384F83D30002084F83C0010BD50
:101A0C000BB1102BF5D119462068FFF756FEF0E705
:101A1C00702B0ED0B3F5005FEBD1CB684A688968A8
:101A2C000068FFF7AFFF2268936843F4804393602C
:101A3C00DFE7CB684A6889680068FFF7A3FF226874
:101A4C00936843F077039360D3E7CA6849680068EA
:101A5C00FFF720FE60212068FFF72FFEC9E7CA6858
:101A6C0049680068FFF704FE40212068FFF725FE57
:101A7C00BFE702207047000090F83C30012B2CD0BF
:101A8C0010B4012380F83C30022380F83D30036809
:101A9C005A689C6822F0700C0A6842EA0C025A6080
:101AAC0003680F4A93420AD0B3F1804F07D0A2F5D6
:101ABC009432934203D002F58062934204D124F015
:101ACC0080044A6814439C60012380F83D30002355
:101ADC0080F83C30184610BC70470220704700BF9D
:101AEC00002C0140704770470268D36823F4907350
:101AFC00D3600268536923F001035361036B012B1C
:101B0C0005D0202380F83E30002303637047026821
:101B1C00D36823F01003D360F3E790F83D30DBB2C9
:101B2C00212B01D0022070478368B3F5805F17D05A
:101B3C00036A5A1C02621A7803685A60C38C9BB2FF
:101B4C00013B9BB2C3844BB90268D36823F080037A
:101B5C00D3600268D36843F04003D3600020704721
:101B6C000369002BE4D1036A1B880268C3F30803E2
:101B7C005360036A02330362E0E7000010B50446C9
:101B8C000268136923F44053C1680B4313618368E3
:101B9C000269134342691A430168CB6823F4B053BA
:101BAC0023F00C031343CB600268536923F4407396
:101BBC0081690B4353610268134B9A4220D0FFF7A3
:101BCC0037FD024602EB820202EB820263689B0045
:101BDC00B2FBF3F20D48A0FB02314909642303FB6D
:101BEC0011231B013233A0FB03235B0903F0F0022A
:101BFC0002EB011203F00F03216813448B6010BD3C
:101C0C00FFF726FD0246DDE7003801401F85EB514A
:101C1C0058B310B5044690F83D300BB3242384F828
:101C2C003D302268D36823F40053D3602046FFF77D
:101C3C00A5FF2268136923F490431361226853694A
:101C4C0023F02A0353612268D36843F40053D36012
:101C5C0000202064202384F83D3084F83E3010BDF1
:101C6C0080F83C30FEF72CFFD8E70120704790F845
:101C7C003D30DBB2202B19D1D1B1DAB190F83C3028
:101C8C00012B19D0012380F83C3001628284C2847C
:101C9C0000230364212280F83D2080F83C30016849
:101CAC00CA6842F08002CA6018467047022070472A
:101CBC00012070470120704702207047704708B51B
:101CCC000168CA6822F04002CA60202280F83D20D8
:101CDC00FFF7F4FF002008BD704708B5406A0023E9
:101CEC00C385C384FFF7F8FF08BD704790F83E30FA
:101CFC00DBB2222B60D18368B3F5805F46D0826A59
:101D0C00B3F5805F04D0002B4DD10369002B4AD171
:101D1C0003685B681370836A01338362C38D9BB263
:101D2C00013B9BB2C385002B48D100B583B0026840
:101D3C00D36823F02003D3600268D36823F4807344
:101D4C00D3600268536923F001035361202380F8A8
:101D5C003E30036B012B2CD1002303630268D36844
:101D6C0023F01003D36003681A6812F0100F06D02A
:101D7C00002201921A6801925B680193019B818D8C
:101D8C00FFF7B3FF002003B05DF804FB0269002AE3
:101D9C00B5D1826A03685B68C3F308031380836A56
:101DAC0002338362BAE703685B6803F07F03137046
:101DBC00B1E7FEF763FBE5E70220704700207047B0
:101DCC0030B583B0044602681368D068516913F0CB
:101DDC000F0505D113F0200F02D010F0200F19D1F0
:101DEC002DB111F0010119D110F4907F16D1216B96
:101DFC00012975D013F0800F03D010F0800F40F044
:101E0C00D78013F0400F03D010F0400F40F0D48077
:101E1C0003B030BD2046FFF769FFF9E713F0010F5F
:101E2C0006D010F4807F03D0226C42F001022264B1
:101E3C0013F0040F04D019B1226C42F00202226498
:101E4C0013F0020F04D019B1226C42F00402226488
:101E5C0013F0080F07D010F0200F00D119B1226C2D
:101E6C0042F008022264226C002AD1D013F0200F19
:101E7C0002D010F0200F21D123685B6903F04003DE
:101E8C00226C12F0080F00D123B32046FFF72CFE72
:101E9C0023685A6912F0400F18D05A6922F0400298
:101EAC005A61A36B73B1464A5A63A06BFEF74AFFA3
:101EBC000028ADD0A06B436B9847A9E72046FFF7ED
:101ECC0015FFD9E72046FFF707FFA1E72046FFF7EC
:101EDC0003FF9DE72046FFF7FFFE0023236497E7EF
:101EEC0013F0100F86D010F0100F83D00023019345
:101EFC001368019353680193019B536913F0400FCE
:101F0C0032D0A16B0B685B689BB2002B80D0A08D8C
:101F1C0098427FF67DAFE3858B69202B08D1A18D8C
:101F2C00E38D9BB2C91A89B22046FFF7DEFE6FE73C
:101F3C00D36823F48073D3602268536923F00103C0
:101F4C0053612268536923F040035361202384F8C2
:101F5C003E30002323632268D36823F01003D36040
:101F6C00A06BFEF7CDFEDAE7A18DE38D9BB2C91A0B
:101F7C0089B2E38D9BB2002B3FF44AAF00293FF4AA
:101F8C0047AFD36823F49073D3602268536923F06E
:101F9C0001035361202384F83E300023236322681D
:101FAC00D36823F01003D3602046FFF79EFE2FE783
:101FBC002046FFF7B2FD2BE72046FFF780FE27E710
:101FCC00E71C0008034681628285C28500201864E4
:101FDC00222283F83E2083F83C001968CA6842F438
:101FEC008072CA6019684A6942F001024A611A6833
:101FFC00D36843F02003D360704708B590F83E30A7
:10200C00DBB2202B0DD171B17AB190F83C30012BA1
:10201C000DD0012380F83C3000230363FFF7D2FF7F
:10202C0000E0022008BD0120FCE70120FAE70220B5
:10203C00F8E7000008B500224FF480710148FEF764
:10204C00DFFF08BD0008014008B500224FF4006115
:10205C000148FEF7D5FF08BD0008014008B5002275
:10206C004FF480510148FEF7CBFF08BD000801403A
:10207C0008B501224FF480710148FEF7C1FF08BD7D
:10208C000008014008B501224FF400610148FEF739
:10209C00B7FF08BD0008014008B501224FF480517C
:1020AC000148FEF7ADFF08BD0008014008B500224D
:1020BC0020210248FEF7A4FF08BD00BF000C014020
:1020CC0008B5002240210248FEF79AFF08BD00BF68
:1020DC00000C014008B5002280210248FEF790FF59
:1020EC0008BD00BF000C014008B5012220210248A8
:1020FC00FEF786FF08BD00BF000C014008B50122A9
:10210C0040210248FEF77CFF08BD00BF000C0140D7
:10211C0008B5012280210248FEF772FF08BD00BFFE
:10212C00000C014008B500224FF400410148FEF7B5
:10213C0067FF08BD0010014008B500224FF4804134
:10214C000148FEF75DFF08BD0010014008B50022F4
:10215C004FF400510148FEF753FF08BD0010014039
:10216C0008B501224FF400410148FEF749FF08BDB4
:10217C000010014008B501224FF480410148FEF7E0
:10218C003FFF08BD0010014008B501224FF400517B
:10219C000148FEF735FF08BD0010014008B50022CC
:1021AC004FF400410148FEF72BFF08BD0008014029
:1021BC0008B5002208210248FEF722FF08BD00BF27
:1021CC00000C014008B5002210210248FEF718FF50
:1021DC0008BD00BF000C014008B501224FF40041BE
:1021EC000148FEF70DFF08BD0008014008B50122AB
:1021FC0008210248FEF704FF08BD00BF000C014097
:10220C0008B5012210210248FEF7FAFE08BD00BFF6
:10221C00000C014070B50D4E0D4D761BB61006D05E
:10222C00002455F8043B01349847A642F9D1094ED5
:10223C00094D00F0D5F8761BB61006D0002455F8E1
:10224C00043B01349847A642F9D170BD68240008BC
:10225C00682400087024000868240008830730B53F
:10226C0048D0541E002A3FD00346CAB201E0013CBC
:10227C003AD303F8012B9D07F9D1032C2DD9CDB2FC
:10228C0045EA05250F2C45EA054536D9A4F110027F
:10229C0022F00F0C03F1200EE6444FEA121C03F15E
:1022AC00100242E9045542E9025510327245F8D148
:1022BC000CF1010214F00C0F03EB021204F00F0CE2
:1022CC0013D0ACF1040323F003030433134442F89A
:1022DC00045B9342FBD10CF003042CB1CAB21C4436
:1022EC0003F8012B9C42FBD130BD64461346002CF5
:1022FC00F4D1F9E703461446BFE71A46A446E0E7D3
:10230C00024B13B1024800F005B870470000000002
:10231C002D230008002301461A46184600F01AB86F
:10232C0038B5084B084D5B1B9C1007D0043B1D4473
:10233C00013C55F804399847002CF9D1BDE83840D8
:10234C0000F054B87424000870240008704700BFD3
:10235C00704700BF2DE9F047DFF87CA00646DAF89D
:10236C00000098460F469146FFF7F0FF1B4B1B6889
:10237C00D3F8484124B365681F2D26DC5EB96B1C6D
:10238C000235DAF80000636044F82570FFF7E0FFCF
:10239C000020BDE8F087012304EB8501C1F888908B
:1023AC00D4F88821AB401A43022EC4F88821C1F816
:1023BC000881E4D1D4F88C211343C4F88C31DEE7C6
:1023CC0003F5A674C3F84841D5E7DAF80000FFF727
:1023DC00BFFF4FF0FF30DCE7480400206424000806
:1023EC00F8B500BFF8BC08BC9E467047F8B500BFF6
:0823FC00F8BC08BC9E467047C6
:102404006F6B6F6B313131313131313131313131C8
:102414000D0A00006F6B6F6B0D0A00003F00060091
:102424005B004F0066006D007D0007007F006F00B9
:10243400000000000000000000000000010203048E
:102444000607080900000000010203040203040552
:10245400060708090A0B0C0D0E0F101000000000EF
:042464002000002034
:082468000D23000831010008FA
:042470000D01000852
:102474000B0B0B0B0B0B0B0B19001E003C00050088
:102484000024F4000100000010000000000000001F
:10249400000000000C03002074030020DC03002073
:1024A4000000000000000000000000000000000028
:1024B4000000000000000000000000000000000018
:1024C4000000000000000000000000000000000008
:1024D40000000000000000000000000000000000F8
:1024E40000000000000000000000000000000000E8
:1024F40000000000000000000000000000000000D8
:1025040000000000000000000000000000000000C7
:1025140000000000000000000000000000000000B7
:1025240000000000000000000000000000000000A7
:102534000000000000000000010000000000000096
:102544000E33CDAB34126DE6ECDE05000B0000005B
:102554000000000000000000000000000000000077
:102564000000000000000000000000000000000067
:102574000000000000000000000000000000000057
:102584000000000000000000000000000000000047
:0C28B4000000000000000000C40500202F
:0400000508000B558F
:00000001FF
